:020000040800F2
:1000000028230020ED1F0008AD020008AF02000801
:10001000B3020008B7020008BB020008000000009D
:10002000000000000000000000000000BF02000807
:10003000C102000800000000C3020008C502000859
:1000400007200008072000080720000807200008F4
:1000500007200008072000080720000807200008E4
:1000600007200008072000080720000807200008D4
:1000700007200008072000080720000807200008C4
:1000800007200008072000080720000807200008B4
:1000900007200008072000080720000807200008A4
:1000A0000720000807200008072000080720000894
:1000B00069060008BF07000807200008072000089D
:1000C0000720000807200008072000080720000874
:1000D00007200008631F0008072000080720000809
:1000E0000720000807200008072000080720000854
:1000F0000720000807200008072000080720000844
:100100000720000807200008072000080720000833
:100110000720000807200008072000080720000823
:100120000720000807200008072000080720000813
:1001300000F002F800F06AF80AA090E8000C82448F
:100140008344AAF10107DA4501D100F05FF8AFF26C
:10015000090EBAE80F0013F0010F18BFFB1A43F0A5
:1001600001031847A4770000C47700000A444FF049
:10017000000C10F8013B13F0070408BF10F8014B06
:100180001D1108BF10F8015B641E05D010F8016B4B
:10019000641E01F8016BF9D113F0080F1EBF10F8AF
:1001A000014BAD1C0C1B09D16D1E58BF01F801CBD2
:1001B000FAD505E014F8016B01F8016B6D1EF9D555
:1001C0009142D6D37047000000230024002500266A
:1001D000103A28BF78C1FBD8520728BF30C148BFAA
:1001E0000B607047662906F01C86642903F0868739
:1001F000002070471FB504F08FFB04000020002191
:1002000005F0B4FCE0601FBD10B510BD04F084FC27
:100210001146FFF7EFFF00F009F804F0A2FC03B469
:10022000FFF7F2FF03BC01F041FE000040F23F6027
:100230001849088001F0CAFD01F032FE002115487E
:10024000008800F031F90A2141F2873000F0D6F938
:10025000114801F041F800F0A9FB18230F4A10499A
:10026000104800F031FC01F020FC01F01FFD0949AD
:10027000088800EBD071491001F596710A4A1160A7
:1002800006E001F01FF801F041FD044601F034F8EA
:10029000F7E7000000000020B8000020D402002092
:1002A0004C2401400800024078000020704700BF45
:1002B000FEE700BFFEE700BFFEE700BFFEE77047B6
:1002C00070477047704700000CB500200190009007
:1002D0006C48006840F480306A49086000BF694893
:1002E000006800F4003000900198401C01900098D4
:1002F00018B90198B0F5A06FF1D16248006800F418
:10030000003010B10120009001E000200090009822
:10031000012843D15C48006840F010005A49086049
:100320000846006820F0030008600846006840F0B6
:1003300002000860534840685249486008464068D7
:1003400048600846406840F480604860084640685D
:1003500020F47C1048600846406840F4E81048608B
:100360000846006840F08070086000BF454800689B
:1003700000F000700028F9D04248406820F00300E7
:10038000404948600846406840F00200486000BFAD
:100390003C48406800F00C000828F9D10CBD10B5AD
:1003A000FFF792FF10BD10B53648006840F001001D
:1003B000344908600846406834490840314948607B
:1003C00008460068324908402E490860084600681F
:1003D00020F4802008600846406820F4FE00486051
:1003E0004FF41F008860FFF7DAFF4FF000602949E3
:1003F000086010BD10B5002100200022214B5B6871
:1004000003F00C0121B1042906D0082928D107E006
:10041000214B224C236027E01F4B204C236023E01C
:10042000184B5B6803F47010164B5B6803F4803262
:10043000022303EB904022B9194B4343174C23602E
:100440000DE0104B5B6803F4003323B1144B4343BE
:10045000124C236003E0104B4343104C236003E035
:100460000D4B0E4C236000BF00BF064B5B68C3F30F
:1004700003130C4CE15C094B1B68CB40074C236019
:1004800010BD000000100240002002400000FFF8F4
:10049000FFFFF6FE08ED00E000127A006400002085
:1004A00000093D006800002030B589B005460C46C3
:1004B0000121084602F051F90121052002F040F91E
:1004C00018208DF823000620ADF8200003208DF8B9
:1004D000220008A9604801F077FE0020ADF81A005C
:1004E000ADF81600ADF81850ADF8144005A94FF05E
:1004F000804002F061FC6020ADF804000120ADF8FE
:1005000006000020ADF80C0001A94FF0804002F079
:1005100090FC0821C80603F0DBF86020ADF8040069
:100520000120ADF806000020ADF80C0001A94FF045
:10053000804002F0C0FC0821C80603F0D2F801A9EF
:100540004FF0804002F004FD0821C80603F0D6F801
:1005500001221146900702F0A6FF1C208DF8000032
:1005600000208DF801008DF8020001208DF80300B5
:10057000684601F060FD0121880702F079FF09B0AB
:1005800030BD30B589B005460C460121042002F08B
:10059000E4F80121092002F0D3F818208DF8230097
:1005A0004020ADF8200003208DF8220008A92B4838
:1005B00001F00AFE0020ADF81A00ADF81600ADF803
:1005C0001850ADF8144005A9254802F0F5FB60204D
:1005D000ADF804000120ADF806000020ADF80C00D5
:1005E00001A91F4802F025FC08211D4803F070F8FE
:1005F00001211B4802F03CFF09B030BD7FB5054624
:100600000C460121022002F0A8F8ADF80850ADF820
:1006100004400020ADF80A00ADF8060001A9114819
:1006200002F0CAFB012211460E4802F03CFF1D20D9
:100630008DF8000001208DF8010000208DF80200E7
:1006400001208DF80300684601F0F5FC0121054802
:1006500002F00EFF7FBD000000080140000C0140C9
:10066000000800400004004010B50121880703F095
:10067000C8F901280BD1064800884FF080418887CF
:100680000348008808870121880703F0CBF910BDD3
:10069000780000202DE9F04106460C460027002591
:1006A0000AE036F8150006F0F7F98046394606F0FC
:1006B0003BF80746681C85B2A542F2DB204606F0EF
:1006C000EBF980464146384606F09CF80746384626
:1006D000BDE8F0812DE9FF5F81468A464FF0000BAF
:1006E0000020029000240CE059F8241059F824004E
:1006F00006F01AFA0390DDE9020106F015F80290FF
:10070000641C5445F0DB504606F0C6F901460090E3
:10071000029806F077F8019005F0DAFF074605F039
:10072000FFF9054605F038FA8346584604B0BDE89F
:10073000F09FF0B503460C46164600211AE0002251
:1007400012E033F81270501C33F81000874209DDB4
:1007500033F81250501C33F8100023F81200501CCC
:1007600023F81050501C82B2601A401E9042E8DC00
:10077000481C81B2A142E2DB7000A04211DA31468E
:10078000002504E033F811000544481C81B2A01B89
:100790008842F7DC022000FB1640B5FBF0F080B287
:1007A000F0BD0021002504E033F811000544481C89
:1007B00081B2A142F8DBB5FBF4F080B2F0E710B5EE
:1007C0008CB001216E4803F01CF9012876D100207D
:1007D000089009900A900B9004900590069007905D
:1007E000009001900290039066480078002859D04C
:1007F00000241AE004EB4400634931F8100008A912
:1008000021F8140004EB44005F4901EB40004088EC
:1008100004A921F8140004EB44005B4901EB4000FB
:1008200080882DF81400601CC4B2082CE2DB022280
:10083000082108A8FFF77DFF5449554A128841F85E
:1008400022000222082104A8FFF773FF5149504AF1
:10085000128841F82200022208216846FFF769FF4A
:100860004D494B4A128841F822004849484A1288AB
:1008700051F8220006F0F8F84849454A128841F834
:1008800022004449424A128851F8220006F0ECF84E
:1008900043493F4A128841F822003D480088401CE5
:1008A0003B4908803A480088FF2802DD002038498B
:1008B00008800121324803F0B5F800BF0CB010BD2C
:1008C00070B504463749096840F62722501A06F0E9
:1008D000CBF8054634480168284606F0F1F921D2E4
:1008E0003049096840F62722501A06F0BDF805463F
:1008F0002D480168284606F0E3F913D22949096812
:1009000040F62722501A06F0AFF80546264801683F
:10091000284606F0D5F905D22068401C2060012049
:1009200001F091FA1F49096801F6272006F09CF8AA
:1009300005461D480168284606F0C2F81FD219492D
:10094000096801F6272006F08FF805461648016869
:10095000284606F0B5F812D21249096801F6272098
:1009600006F082F8054610480168284606F0A8F807
:1009700005D22068401E2060012001F064FA70BD9D
:100980000004004088000020D4020020040300205E
:100990008A00002004070020040B0020040F002020
:1009A000041300205C0000202400002000B587B064
:1009B00001214FF4067001F0C3FE4FF4004001F036
:1009C00023FE0120ADF8040000208DF8070001A9E6
:1009D0003A4801F0F9FB0320ADF8040000208DF83F
:1009E000070001A9364801F0EFFB364803F01EF876
:1009F0000020029001208DF80C008DF80D004FF4BE
:100A0000602004900020059003208DF8180002A9B2
:100A10002C4803F032F8002301220821294803F072
:100A2000C4F8012302220921264803F0BEF801235D
:100A300003220A21234803F0B8F80121214803F0DA
:100A400048F801211F4803F04FF81E4803F063F8EF
:100A500000BF1C4803F064F80028FAD107B000BDBD
:100A600010B50446002301222146164803F09DF8E4
:100A70000121144803F06DF800BF0221114803F072
:100A8000D9F90028F9D00F4803F0F6F810BD2DE988
:100A9000F04107460C460025002608E03846FFF7DF
:100AA000DFFF0544052001F0CEF9701CC6B2A64256
:100AB000F4DBB5FBF4F080B2BDE8F081001001403A
:100AC000000C0140002401402DE9F04107460D468D
:100AD00016461C460121084601F025FE384603F063
:100AE000CDF91048048010480560466000200E498A
:100AF00088600846C460002008618020486140008A
:100B000088618000C86120200862C001486200201E
:100B10008862384603F054FA0121044803F07BFA56
:100B2000BDE8F0818C00002004170020080002407E
:100B30000FB41E98401C10B9012004B0704700206B
:100B4000FBE71FB504460A21A06F092819DAA06F38
:100B5000401CA0670198A26F02EB420244F82200F9
:100B60000398A26F02EB420204EB820290600298AB
:100B7000A26F02EB420204EB82025060012004B03B
:100B800010BD0020FBE730B59BB004460D466C223B
:100B900004F11001684603F0B1FB94E80F00FFF781
:100BA000C7FFC0B9A06F00EB400054F820002860D8
:100BB000A06F00EB400004EB800040686860A16F0C
:100BC000481EA06701EB410004EB80008068A8602C
:100BD00001201BB030BD0020FBE700000146FE48AD
:100BE00000688068081A704710B5002300BF04E051
:100BF00011F8014B00F8014B5B1C9342F8DB10BD70
:100C00000146F548006880680A1A002A03DD082AB0
:100C100001DA012070470020FCE70FB42DE9F04312
:100C200089B005460026B146142103A803F0BAFB9B
:100C300000200090019002902846FFF7E1FF20B9C4
:100C400009B0BDE8F0035DF814FB12A80890E3A119
:100C5000119803F016FB0446002C3FD01198201A7F
:100C6000C2B203A81199FFF7BFFF641C2078642863
:100C700002D0662822D108E0089840C80890324681
:100C8000D7A1684603F026FA19E00898C01D20F0A5
:100C900007000890D0E90021089F08371046089700
:100CA00004F07AFF8146484605F012FD07463A46B1
:100CB0000B46CCA1684603F00DFA00E000BF00BF70
:100CC000694603A803F00EFB2846FFF787FFC7B26B
:100CD00003AA39460A2000F05AFE08E02846FFF72A
:100CE0007DFFC7B239460A20119A00F050FE00205D
:100CF000089000BFA4E7B84A12689268B64B1B6818
:100D00005B681A4482420DD1B84A1278042A02D193
:100D10000A68921C0A60B54A1278032A02D10A684E
:100D2000921E0A60704770B505460C46AA480068D6
:100D30008068A949096849680844A84214D1AB48A9
:100D40000078052810D17CB1A34800680EC8A848D7
:100D5000FFF7F7FEA748046000209F4909688860F4
:100D600001209D490968486070BD9B4A12689268DD
:100D7000994B1B685B681A4482420DD19B4A1278DA
:100D8000042A02D10A6814320A60984A1278032AA7
:100D900002D10A68143A0A6070478F4A1268926852
:100DA0008D4B1B685B681A4482420DD18F4A1278C2
:100DB000042A02D10A681E320A608C4A1278032A79
:100DC00002D10A681E3A0A60704770B505460C46A3
:100DD000072C00DD072488A22146284600F0D7FD15
:100DE00070BD2DE9F04F87B005468A4616461F466E
:100DF00000243146284605F094FF8046002105F086
:100E0000C3FD51D03146284605F08BFF814651463F
:100E1000384605F091FF8346494605F0F3FC0690FD
:100E20002846069905F080FE8146514605F079FF77
:100E300005903146284605F07FFF834605F0D8FD32
:100E4000B0F1000901DB484601E0C9F10000401C97
:100E500000F0FF08002424E0204605F005FE2946A6
:100E6000019005F061FC0290069905F05DFE834655
:100E7000059905F059FC814605F0D6FDC0B20490F5
:100E8000204605F0F1FD8346294605F04DFC8146DC
:100E900005F0CAFDC0B201220390049900F098FC4D
:100EA000641C4445D8DB2AE0002416E0204605F007
:100EB000DBFD5146069005F037FC834605F0B4FD96
:100EC00000F0FF08284605F0AFFD00F0FF09012201
:100ED0004146484600F07CFC641C5146384605F00B
:100EE0002BFF83464FF07E5105F01EFC80462046C6
:100EF00005F0BAFD8146414605F0E2FDD6D307B0C4
:100F0000BDE8F08F10B504463C4800F0AEFE37490E
:100F100008700846007802282BD12F4800684068E6
:100F2000401C2D4909684860072C19DD2A480068D3
:100F30004068072866DD0720274909684860264879
:100F400000688068401C244909688860224800685D
:100F50008168E01F814255DD1F490968886051E0C2
:100F60001D4800684068A0424CDD1B480068446092
:100F700048E01E48007801281CD1174800684068E6
:100F8000401E1549096848601348006840680128F8
:100F900038DA01201049096848600F480068806805
:100FA00000282FDD0C4800688068401E0A49096847
:100FB000886027E00D480078062823D10D48006896
:100FC0004068F8B10B48006840680A490860024868
:100FD0000168074814E00000A00000202500000080
:100FE00025640000252E32660000000090000020DD
:100FF00060170020A40000203E00000030170020F1
:10100000FFF7C1FD10BD2DE9F047054600BF00BF49
:101010002846FFF777FFFE490968086803F043F99F
:101020000446601E00EB40007F21A1EB400606EB6A
:10103000D671481005F018FD8046F649404605F087
:101040007BFE0646F44B324619460020FFF7C9FEE8
:10105000F049404605F070FE074605F0E5FCC6B2D3
:10106000EEA20021304600F092FC04EB440148005F
:1010700005F0FAFC8146414605F056FB074605F0AF
:10108000D3FCC6B2AFF290020021304600F07FFCE4
:10109000404605F0C9FCC6B2DD4800680021026880
:1010A000304600F074FC04EB4401480005F0DCFC21
:1010B0008146414605F038FB0746D64905F034FB2A
:1010C0000646D54B4FF086421946FFF78AFED44BB1
:1010D0004FF0824200211046FFF783FED14800689E
:1010E00001790020FFF771FEBDE8F08770B5082098
:1010F000FFF789FFCC480168CC48006805F082FB07
:10110000064605F0E5FA044622460B46C8A1012032
:10111000FFF783FDCA490120FFF705FEC948CAA1B0
:1011200002680220FFF779FDC6490220FFF735FE6D
:10113000C4480068002802DA0020C2490860C44997
:101140000220FFF7F0FDC348C3A102680320FFF7A8
:1011500064FDC0490320FFF708FEBE480068502820
:1011600002DD5020BB490860BA480068002802DA56
:101170000020B8490860BA490320FFF7D4FDB948F8
:10118000B9A102680420FFF748FDB6490420FFF723
:10119000B2FDB4480068022802DD0220B1490860AF
:1011A000B0480068002802DA0020AE490860B04963
:1011B0000420FFF7B8FD9C48006805F089FA044652
:1011C00022460B46ABA10520FFF727FDAC490520C1
:1011D000FFF7A9FD9548006805F07AFA0446224613
:1011E0000B46A8A10620FFF718FDA9490620FFF726
:1011F0009AFDA848A8A102680720FFF70EFDA9499B
:101200000720FFF790FDA3490720FFF774FDA148D1
:101210000068002802DA00209E490860A24802887F
:10122000A2A10820FFF7F9FC70BD10B50120FFF75F
:10123000EAFE98489FA102680120FFF7EEFC95495D
:101240000120FFF7AAFD10BD10B50120FFF7DBFE5E
:101250009B489CA102680120FFF7DFFC9849012010
:10126000FFF749FD9648006840F2E241884203DDFD
:1012700008469349086006E091480068022802DAAF
:1012800002208F49086010BD10B50120FFF7BBFE9A
:10129000704871A102680120FFF7BFFC6D49012071
:1012A000FFF763FD10BD10B50120FFF7ACFE6D48E0
:1012B00087A102680120FFF7B0FC6A490120FFF70F
:1012C0001AFD10BD10B500F07CFA51490968886814
:1012D000804700F0AFFA10BD10B5044600F0E5FB02
:1012E00000F04FFA00207C49C8628862401E7B49AA
:1012F00088674748046010BD10B50446214676480B
:1013000000F094FC10BD2DE9F05F05460C46164632
:101310001F46204605F0C0FB8046A81905F0A4FB37
:101320008146204605F0B8FB8246284605F0B4FB0E
:10133000834643464A465146FFF753FDE01905F000
:1013400093FB8046284605F0A7FB8146204605F022
:10135000A3FB8246284605F09FFB834643464A4648
:101360005146FFF73EFDE01905F07EFB8046A819C7
:1013700005F07AFB8146E01905F076FB82462846A7
:1013800005F08AFB834643464A465146FFF729FD4E
:10139000E01905F069FB8046A81905F065FB814658
:1013A000204605F079FB8246A81905F05DFB8346CF
:1013B00043464A465146FFF714FDBDE8F09F2DE92C
:1013C000F74F8EB00C46914600200C900C90D0E068
:1013D0000C9805F07DF90746414A424B04F09EFE09
:1013E0000022414BCDE9000104F0B8FC054604F0B1
:1013F000F9FACDE90401484605F06AF9CDE90201A0
:10140000DDE9042304F08AFECDE9080120466DE001
:10141000A40000200000C040000070423C0000001A
:1014200000007C42A0000020280000202C000020AA
:10143000656666696369656E63793A2566000000D2
:10144000C400002050000020563A2564000000002F
:10145000D000002030000020487A3A2564000000C7
:10146000DC0000203C0000204D4F44453A2564003C
:10147000E8000020505F696E2877293A2566000051
:10148000DC170020505F6F75742877293A256600B5
:10149000E81700207800002050574D5F647574797C
:1014A0003A256400F4170020600000204144433ACC
:1014B0002564000073696E5F6D61783A25640000F1
:1014C000AC0000207461726765745F763A25640031
:1014D000703A2564000000003017002060170020DB
:1014E0001F85EB51B81E09400080664005F0F0F8FA
:1014F000CDE90601DDE9082304F080FB824604F013
:10150000B5FDC0B20B900E9805F0E2F8CDE90601EA
:101510000C9805F0DDF88246394A3A4B04F0FEFD9E
:1015200007460022384B04F019FCCDE9000104F015
:10153000A7FACDE90201484605F0CAF80546DDE9FB
:10154000022304F0EBFDCDE90401DDE9062304F0FC
:1015500055FBCDE9080104F089FDC0B201220A90D3
:101560000B9900F035F94FF07E510C9805F0DCF83E
:101570000C9026490C9805F0A3FAFFF429AF11B09E
:10158000BDE8F08F224A12689268214B1B685B68A5
:101590001A44824213D11F4A1278042A05D10A68DC
:1015A000921C0A6001221C4B1A601A4A1278032A04
:1015B00005D10A68921E0A600222174B1A60704712
:1015C00070B505460C4612480068806810490968E5
:1015D00049680844A84211D10E480078042804D173
:1015E0000E49206805F0A0F820600A48007803281A
:1015F00004D10A49206805F09FFB206070BD0000FF
:101600001F85EB51B81E0940008066400000B443BE
:10161000A000002090000020380000200000F041D1
:1016200070B504460E462EB14FF48061FD4800F0BF
:1016300078FE04E04FF48061FA4800F074FE4FF445
:101640000071F84800F06FFE00251BE04FF40051D8
:10165000F44800F068FE04F0800028B14FF4805197
:10166000F04800F05EFE04E04FF48051ED4800F0D9
:101670005AFE4FF40051EB4800F053FE6006040E92
:10168000681CC5B2082DE1DB4FF40071E54800F09D
:1016900048FE4FF48061E34800F043FE70BD70B532
:1016A00004460E462EB14FF48061DE4800F039FE4C
:1016B00004E04FF48061DB4800F035FE4FF4007128
:1016C000D84800F030FE00251BE04FF40051D5480B
:1016D00000F029FE04F0800028B14FF48051D14879
:1016E00000F021FE04E04FF48051CE4800F019FED6
:1016F0004FF40051CB4800F014FE6006040E681C45
:10170000C5B2082DE1DB4FF40071C64800F009FEB8
:101710004FF48061C34800F004FE70BD70B504460C
:101720000D4605F1B001C8B20021FFF779FF102185
:1017300041EA14100021FFF773FF04F00F0141F09C
:1017400001000021FFF76CFF70BD10B500218D2056
:10175000FFF766FF00211420FFF762FF0021AF2092
:10176000FFF75EFF10BD10B500218D20FFF758FF79
:1017700000211020FFF754FF0021AE20FFF750FF9B
:1017800010BD70B5002419E004F1B001C8B2002109
:10179000FFF746FF00210846FFF742FF0021102017
:1017A000FFF73EFF002505E001210020FFF738FF8D
:1017B000681CC5B2802DF7DB601CC4B2082CE3DBCB
:1017C00070BD10B54FF48061974802F0C9FD10BD9F
:1017D000F0B5144600267F2801DC3F2900DDF0BD6E
:1017E0000B46CF1701EB5777FF10C7F10707FAB287
:1017F000CF1701EB5777FF10A1EBC707FDB2C5F17B
:1018000007070123BB40DEB24CB1874B03EBC0039B
:101810009B5C3343844F07EBC007BB5408E0824B0B
:1018200003EBC0039B5CB3437F4F07EBC007BB5484
:1018300000BFD4E770B500241CE004F1B001C8B2C9
:101840000021FFF7EDFE00210846FFF7E9FE002129
:101850001020FFF7E5FE002508E0734901EBC50104
:10186000085D0121FFF7DCFE681CC5B2802DF4DBAA
:10187000601CC4B2082CE0DB70BD2DE9F0410646C7
:101880000D46904600270024A8F12000C7B27F2E05
:1018900002DD0026A81CC5B2072D00DD072529465C
:1018A0003046FFF73BFF00240AE004EB07105F49D6
:1018B000085C31195C4A02EBC1014855601CC4B296
:1018C000082CF2DB681CC1B23046FFF727FF00246A
:1018D0000CE004EB071008305449095C3019524AF7
:1018E00002EBC002681C1154601CC4B2082CF0DB6F
:1018F000BDE8F08110B50246012000E050430B1E08
:10190000A1F10104E1B2F9D110BD2DE9FF5F074655
:1019100091461D460E9E4FF0000A002433E0281B1E
:10192000401EC1B20A20FFF7E5FFB9FBF0F00A2123
:10193000B0FBF1F201FB1208BAF1000F13D1681EDF
:10194000A04210DDB8F1000F0BD1B34606EBDB71FE
:10195000491001FB0471C8B220220199FFF78DFFE5
:101960000FE04FF0010AB34606EBDB71491001FBB3
:101970000471C8B208F13001CAB20199FFF77DFFC6
:1019800000BF601CC4B2AC42C9DBBDE8FF9F2DE9BB
:10199000F04104460F46154600260DE0AA5D394683
:1019A0002046FFF76AFFA01DC4B2782C02DD002498
:1019B000781CC7B2701CC6B2A85D0028EED1BDE885
:1019C000F0812DE9F04180460E461546002731464C
:1019D0004046FFF7A3FE00240AE0154A02EB8511FA
:1019E000085D0121FFF71CFE781CC7B2601CC4B261
:1019F000102CF2DB701CC1B24046FFF78FFE0024B2
:101A00000CE06900491C0A4A02EB4111085D012102
:101A1000FFF706FE781CC7B2601CC4B2102CF0DBC6
:101A2000BDE8F08100200140001800203E71000850
:101A3000F40000202DE9F05F06460F4690461C4654
:101A4000DDF828A04FF0000BE11704EB5171C9102D
:101A5000A4EBC10131B92046E11704EB5171C1F388
:101A6000C70506E02046E11704EB5171C910491C77
:101A7000CDB23D4615E029463046FFF74FFEB14650
:101A80000BE059460BF1010B1AF801000121FFF799
:101A9000C7FD09F1010000F0FF09C145F1DB681C39
:101AA000C5B2A542E7DBBDE8F09F08B501210802F9
:101AB00000F046FE4FF47850ADF8000010208DF88D
:101AC000030003208DF8020069464C4800F07CFBBF
:101AD0004FF47851494800F024FC4FF40061474826
:101AE00000F01FFC642000F0AEF94FF400614348A1
:101AF00000F019FCC82000F0A6F94FF400613F483F
:101B000000F00FFC0021AE20FFF78AFD00210846FF
:101B1000FFF786FD00211020FFF782FD0021402005
:101B2000FFF77EFD00218120FFF77AFD0021CF2005
:101B3000FFF776FD0021A120FFF772FD0021C820EC
:101B4000FFF76EFD0021A620FFF76AFD0021A82007
:101B5000FFF766FD00213F20FFF762FD0021D32043
:101B6000FFF75EFD00210846FFF75AFD0021D52052
:101B7000FFF756FD00218020FFF752FD0021D920FC
:101B8000FFF74EFD0021F120FFF74AFD0021DA208A
:101B9000FFF746FD00211220FFF742FD0021DB2068
:101BA000FFF73EFD00214020FFF73AFD00212020F5
:101BB000FFF736FD00210220FFF732FD00218D20C6
:101BC000FFF72EFD00211420FFF72AFD0021A4209D
:101BD000FFF726FD0021A620FFF722FD0021AF2000
:101BE000FFF71EFD0021AF20FFF71AFDFFF7C9FD2B
:101BF00000210846FFF792FD08BD000000200140CB
:101C00000FB40A21DDE90A02904202D1012004B09A
:101C100070470A98401C90FBF1F201FB12000B9AEE
:101C2000904201D10020F2E70220F0E770B588B0C1
:101C300004460D460A26202204F11001684602F0EF
:101C40005DFB94E80F00FFF7DBFF10B9002008B040
:101C500070BDA06A44F82050A06A401C90FBF6F1C9
:101C600006FB1100A0620120F1E770B588B00446C0
:101C700000250026202204F11001684602F03EFBF8
:101C800094E80F00FFF7BCFF012802D1002008B044
:101C900070BD0A25E06A54F82060E06A401C90FBA1
:101CA000F5F105FB1100E0623046F0E708B50121CF
:101CB0004FF4E87000F044FD4FF47040ADF80000C0
:101CC00048208DF8030069463C4800F07DFA8020EA
:101CD000ADF8000048208DF803006946384800F050
:101CE00073FA0220ADF8000048208DF80300694621
:101CF000344800F069FA8020ADF8000010208DF81B
:101D000003006946304800F05FFA08BD10B54FF493
:101D100080512A4800F0EBFAD8B10221294800F09E
:101D2000E6FAB0B18021264800F0E1FA88B14FF41C
:101D30000051224800F0DBFA58B14FF480411F48AF
:101D400000F0D5FA28B14FF400411C4800F0CFFA5A
:101D500080BB3C2000F077F84FF48051174800F02A
:101D6000C6FA08B9032010BD0221164800F0BFFAD8
:101D700008B90220F7E78021114800F0B8FA08B945
:101D80000420F0E74FF400510C4800F0B0FA08B915
:101D90000520E8E74FF48041084800F0A8FA08B9A8
:101DA0000120E0E74FF40041044800F0A0FA08B930
:101DB0000620D8E7FFE70020D5E70000001C01401F
:101DC00000180140002001400010014010B56FF0E4
:101DD000040000F07AF92E4800682E49B0FBF1F0BB
:101DE0002D4908700846007800EB4001C1EBC01097
:101DF0004FF6FF7101EAC0002849088010BD014676
:101E0000254A12784A434FF0E0235A6100229A6132
:101E10001A46126942F001021A6100BF4FF0E02237
:101E2000106900F001021AB100F48032002AF5D0E6
:101E30004FF0E022126922F001024FF0E0231A6114
:101E400000229A6170470146144A12884A434FF0B3
:101E5000E0235A6100229A611A46126942F0010297
:101E60001A6100BF4FF0E022106900F001021AB1C0
:101E700000F48032002AF5D04FF0E022126922F0FF
:101E800001024FF0E0231A6100229A6170470000BE
:101E90006400002000127A00B4020020B602002084
:101EA00010B54FF4A06000F0C1F810BD014600BFAE
:101EB000704700BF494A128802F04002002AF9D058
:101EC000C2B2464B1B1D1A80704710B586B004463F
:101ED000012144F2050000F033FC4FF40070ADF82E
:101EE000140003208DF8160018208DF8170005A99E
:101EF0003B4800F069F94FF48060ADF8140004200D
:101F00008DF8170005A9364800F05EF925208DF8F8
:101F1000000003208DF801008DF8020001208DF8EB
:101F20000300684600F087F801940020ADF808002F
:101F3000ADF80A00ADF80C00ADF810000C20ADF8BB
:101F40000E0001A9254800F0A2FC012240F2255113
:101F5000224800F034FD0121204800F024FD06B0A5
:101F600010BD10B540F225511C4800F00DFE10B315
:101F70001A4800F089FDC4B21A48008800F40040F5
:101F8000C8B91848008800F4804060B10A2C03D01A
:101F900000201449088020E01248008840F40040E6
:101FA0001049088019E00D2C06D10E48008840F435
:101FB00080400C49088010E00A480088C0F30D00FA
:101FC00009490C5407480088401C06490880084607
:101FD0000088C72801DD0020088010BD00380140BE
:101FE00000080140BC020020001C00200948804776
:101FF00009480047FEE7FEE7FEE7FEE7FEE7FEE7EB
:10200000FEE7FEE7FEE7FEE704480549054A064B02
:1020100070470000A703000831010008281D0020B8
:1020200028230020281F0020281F002031490143B9
:10203000314A1160704770B5002100230F22C47827
:1020400004B32D4C246804F4E064C4F5E064210A70
:10205000C1F10403CA40447804FA03F184781440BF
:1020600021430901254C0678A155047804F01F0589
:102070000124AC4005786D11AD0005F1E025C5F8EF
:10208000004109E0047804F01F050124AC401C4D18
:102090000678761145F8264070BD1A4A0A40024378
:1020A000154B1B1F1A60704739B1134A121D126875
:1020B0000243114B1B1D1A6006E00F4A121D1268E5
:1020C00082430D4B1B1D1A607047042808D14FF046
:1020D000E021096941F004014FF0E022116107E0BD
:1020E0004FF0E021096921F004014FF0E022116175
:1020F000704700000000FA050CED00E000E400E08D
:1021000080E100E080FFFF1F10B50446CC48844208
:1021100008D10121042000F02DFB0021042000F053
:1021200029FB46E0C748844208D10121082000F07D
:1021300021FB0021082000F01DFB3AE0C248844248
:1021400008D10121102000F015FB0021102000F023
:1021500011FB2EE0BD48844208D10121202000F06F
:1021600009FB0021202000F005FB22E0B848844252
:1021700008D10121402000F0FDFA0021402000F0AC
:10218000F9FA16E0B348844208D10121802000F01A
:10219000F1FA0021802000F0EDFA0AE0AE48844216
:1021A00007D10121801500F0E5FA0021A01500F00B
:1021B000E1FA10BD10B50121084600F0DBFA00215C
:1021C000012000F0D7FA10BD2DE9F04102460025AC
:1021D0000026002000230024002791F803C00CF003
:1021E0000F0591F803C00CF0100CBCF1000F03D0E8
:1021F00091F802C04CEA050591F800C0BCF1000F4F
:1022000031D0146800202BE04FF0010C0CFA00F3E1
:10221000B1F800C00CEA03069E4220D183004FF0C3
:102220000F0C0CFA03F7BC4305FA03FC4CEA040458
:1022300091F803C0BCF1280F06D14FF0010C0CFA45
:1022400000FCC2F814C00AE091F803C0BCF1480FCA
:1022500005D14FF0010C0CFA00FCC2F810C0401C74
:102260000828D1D31460B1F800C0BCF1FF0F34DDF1
:10227000546800202EE000F1080C4FF0010808FA25
:102280000CF3B1F800C00CEA03069E4221D1830092
:102290004FF00F0C0CFA03F7BC4305FA03FC4CEAB1
:1022A000040491F803C0BCF1280F05D100F1080C1B
:1022B00008FA0CF8C2F8148091F803C0BCF1480F7A
:1022C00007D100F1080C4FF0010808FA0CF8C2F829
:1022D0001080401C0828CED35460BDE8F0814FF632
:1022E000FF710180022181700421C1707047024694
:1022F000002093680B400BB1012000E000207047E4
:102300000146886880B2704702460020D3680B40BF
:102310000BB1012000E0002070470146C86880B280
:10232000704701617047416170470AB1016100E087
:1023300041617047C16070474FF480320A43826147
:102340008161826182698269704702460020434B45
:1023500018684FF68073184040EA021008433F4B5C
:10236000186070473E49C8617047F0B50A460023BF
:1023700000240021002500F00046B6F1004F02D1F4
:10238000364EF16901E0354E7168C0F3034583B202
:1023900000F44016B6F5401F08D121F070612F4EB1
:1023A000766826F070662D4F7E6012E000F480168D
:1023B000B6F5801F06D1032606FA05F4A14341F0C5
:1023C000706106E0460D360103FA06F6B14341F0AE
:1023D000706122B1460D360103FA06F6314300F072
:1023E0000046B6F1004F02D11C4EF16101E01B4ED8
:1023F0007160F0BD30B500228B071C0F0F2303FA6C
:1024000004F2164B08338C1053F824309343134CCA
:1024100008348D1044F8253023468C1053F82430AE
:102420008C07240F00FA04F423430C4C08348D105D
:1024300044F8253030BD0A49DC310860704700009F
:1024400000080140000C0140001001400014014050
:1024500000180140001C0140002001400000014024
:1024600000002042DF48006840F00100DD490860BC
:1024700008464068DC490840DA4948600846006878
:10248000DA490840D74908600846006820F48020EF
:1024900008600846406820F4FE0048604FF41F00C2
:1024A00088607047CF49096821F48031CD4A1160B6
:1024B0001146096821F480211160B0F5803F03D0F6
:1024C000B0F5802F0ED106E0C649096841F480318D
:1024D000C44A116007E0C349096841F4A021C14A18
:1024E000116000E000BF00BF704710B50146002238
:1024F000002300204A11012A02D1BA4C236806E0C9
:10250000022A02D1B74C236A01E0B64C636A01F09B
:102510001F02012494401C400CB1012000E0002067
:1025200010BD38B5002000900024002500BF3120E8
:10253000FFF7DBFF05460098401C00900098B0F5BF
:10254000A06F01D0002DF2D03120FFF7CEFF08B1EF
:10255000012400E00024204638BD01460020A14AA5
:10256000106820F0F80040EAC10010607047A049F0
:1025700008607047024600209A4B586820F47C108F
:1025800042EA01031843974B586070479849086620
:10259000704701460020934A506820F0030008432A
:1025A000506070478F48406800F00C00704701464B
:1025B00000208C4A506820F0F000084350607047BB
:1025C00001460020874A506820F4E06008435060CC
:1025D000704701460020834A506820F4605040EA6A
:1025E000C1005060704729B17E4A527A02437D4B48
:1025F0005A7204E07B4A527A82437A4B5A7270478D
:102600007B49D8310860704701460020754A506800
:1026100020F440400843506070470021714A203246
:102620001170704A82F82010012802D004280AD1C3
:1026300004E001216B4A2032117005E00521694A4E
:102640002032117000E000BF00BF70476949086088
:1026500070476449096A0143624A116270476549DB
:1026600044390860704730B500210022002400235F
:102670005C4D6D6805F00C0121B1042905D00829D5
:1026800023D105E05C4D056022E05B4D05601FE055
:10269000544D6D6805F47012524D6D6805F4803428
:1026A000022505EB92421CB9544D554305600BE0E1
:1026B0004C4D6D6805F400351DB1504D5543056016
:1026C00002E04D4D5543056002E04B4D056000BFF3
:1026D00000BF444D6D6805F0F0010909484D6B5C81
:1026E0000568DD4045603F4D6D6805F4E061090A0D
:1026F000434D6B5C4568DD4085603A4D6D6805F47F
:102700006051C90A3E4D6B5C4568DD40C560354D82
:102710006D6805F44041890B3A4D6B5CC568B5FBAB
:10272000F3F5056130BD29B12E4A526902432D4BA4
:102730005A6104E02B4A526982432A4B5A6170471E
:1027400029B1284A92690243264B9A6104E0254A3E
:1027500092698243234B9A61704729B1214AD26919
:102760000243204BDA6104E01E4AD26982431D4BCA
:10277000DA61704729B11B4AD2680243194BDA600B
:1027800004E0184AD2688243164BDA60704729B1D8
:10279000144A12690243134B1A6104E0114A126988
:1027A0008243104B1A6170471249403908607047E4
:1027B0000F49C86470470B49C87170470948406A9F
:1027C00040F0807007494862704701460020054A82
:1027D00092680A400AB1012000E0002070470149D8
:1027E00088727047001002400000FFF8FFFFF6FEFD
:1027F000000042428004424200127A0000093D007B
:10280000BE020020CE02002010B50446FB488442E0
:1028100009D101218803FFF7ADFF00214FF480406B
:10282000FFF7A8FF32E0F648844209D101214804AD
:10283000FFF7ADFF00214FF40030FFF7A8FF25E0C0
:10284000F048844209D101218804FFF7A0FF00214C
:102850004FF48020FFF79BFF18E0EB48844209D13A
:102860000121C804FFF793FF00214FF40020FFF778
:102870008EFF0BE0E548844208D101210805FFF7EF
:1028800086FF00214FF48010FFF781FF10BD2DE976
:10289000F04786B005460E460024A24600BFA1467A
:1028A0000027B08900B100BF2F462C8A4CF6FF707C
:1028B0000440F08804432C82AC894EF6F3100440A7
:1028C000B08831890843718908430443AC81AC8ADC
:1028D0004FF6FF400440B0890443AC8201A8FFF7E3
:1028E000C2FEC648874202D1DDF810A001E0DDF843
:1028F0000CA0A88900F4004040B10AEBCA0000EB2C
:102900000A1031684900B0FBF1F807E00AEBCA0091
:1029100000EB0A1031688900B0FBF1F86420B8FBC5
:10292000F0F004012009642101FB1089A88900F45A
:10293000004040B1322000EBC900B0FBF1F000F0E4
:102940000700044308E0322000EB09106421B0FBCB
:10295000F1F000F00F0004432C8106B0BDE8F087D1
:102960004FF41651016000218180C18001810C214A
:10297000418100218181704710B502460020108AF4
:102980004FF2FF0318400B884C8823438C88234365
:10299000CC8823431843108210BD00210180418060
:1029A0008180C180704721B1828942F400528281C6
:1029B00004E082894DF6FF731A4082817047F0B5BA
:1029C0000346002400260025002040F66A17B9427D
:1029D00000D100BF1846C1F3421401F01F060127C1
:1029E00007FA06F5012C01D10C3004E0022C01D1CC
:1029F000103000E014301AB107682F43076002E07E
:102A00000768AF430760F0BD1AB1838A0B43838226
:102A100002E0838A8B4383827047028A4FF6F07309
:102A20001A400282028A0A430282704782894FF268
:102A3000FF731A40828182890A438281704721B1E3
:102A4000828942F00202828104E082894FF6FD739E
:102A50001A4082817047028A4FF6DF731A40028261
:102A6000028A0A430282704721B1028A42F48042FC
:102A7000028204E0028A4BF6FF731A40028270471A
:102A8000C1F308028280704701468888C0F30800BD
:102A90007047818941F0010181817047028BD2B278
:102AA0000283028B42EA012202837047028B02F406
:102AB0007F420283028B0A430283704721B1828ADC
:102AC00042F02002828204E0828A4FF6DF731A40CD
:102AD0008282704721B1828A42F01002828204E031
:102AE000828A4FF6EF731A408282704721B1828A40
:102AF00042F00802828204E0828A4FF6F7731A409D
:102B00008282704721B1828942F40042828103E0CF
:102B10008289C2F30E028281704721B1828A42F417
:102B20000062828204E0828A4FF2FF731A4082823E
:102B30007047828A4FF6FB731A408282828A0A4368
:102B40008282704721B1828A42F00202828204E0CE
:102B5000828A4FF6FD731A40828270470246002037
:102B6000B1F5007F00D100BF13880B400BB10120ED
:102B700000E00020704701F40072B2F5007F00D140
:102B800000BFCA430280704770B50246002400238C
:102B90000025002040F66A16B14200D100BFC1F303
:102BA000421501F01F03012606FA03F3012D02D19D
:102BB0009689334006E0022D02D1168A334001E0A7
:102BC000968A33400C12012606FA04F41688344023
:102BD00013B10CB1012000E0002070BD10B500223F
:102BE000002340F66A14A14200D100BF0A1201245A
:102BF0009440A3B2DC43048010BD000000380140C3
:102C00000044004000480040004C0040005000409C
:102C100010B50446FE48844208D10121C014FFF7D4
:102C2000A9FD0021E014FFF7A5FDC4E0B4F1804F39
:102C300008D101210846FFF7AAFD00210120FFF776
:102C4000A6FDB8E0F348844208D101210220FFF735
:102C50009EFD00210220FFF79AFDACE0EE48844281
:102C600008D101210420FFF792FD00210420FFF785
:102C70008EFDA0E0E948844208D101210820FFF739
:102C800086FD00210820FFF782FD94E0E44884429D
:102C900008D101211020FFF77AFD00211020FFF755
:102CA00076FD88E0DF48844208D101212020FFF72B
:102CB0006EFD00212020FFF76AFD7CE0DA488442A7
:102CC00008D101214014FFF755FD00216014FFF7E2
:102CD00051FD70E0D548844209D10121C804FFF7B5
:102CE00049FD00214FF40020FFF744FD63E0D04888
:102CF000844209D101210805FFF73CFD00214FF472
:102D00008010FFF737FD56E0CA48844209D10121FF
:102D10004805FFF72FFD00214FF40010FFF72AFDB3
:102D200049E0C548844208D101214020FFF72FFD2A
:102D300000214020FFF72BFD3DE0C048844208D130
:102D400001218020FFF723FD00218020FFF71FFDD8
:102D500031E0BB48844208D101218015FFF717FDFF
:102D60000021A015FFF713FD25E0B648844209D1E4
:102D700001210804FFF7FEFC00214FF48030FFF72B
:102D8000F9FC18E0B048844209D101214804FFF75A
:102D9000F1FC00214FF40030FFF7ECFC0BE0AB48F6
:102DA000844208D101218804FFF7E4FC00214FF49C
:102DB0008020FFF7DFFC10BD00220288944B984270
:102DC0000ED0994B98420BD0B0F1804F08D0914B68
:102DD000984205D0904B984202D0904B984204D133
:102DE0004FF68F731A404B881A438D4B984207D089
:102DF0008C4B984204D04FF6FF431A40CB881A43BD
:102E000002808B8883850B880385814B98420BD089
:102E1000854B984208D08B4B984205D08A4B9842FC
:102E200002D08A4B984201D10B7A03860123838218
:102E3000704770B5002400220023058C4FF6FE7603
:102E400035400584028C8388048B4FF68F752C40A7
:102E5000B51E2C400D882C43751E2A400D892A432F
:102E60004D882A436A4DA8420BD06F4DA84208D026
:102E7000744DA84205D0744DA84202D0734DA842AB
:102E800013D14FF6F7752A404D892A434FF6FB754B
:102E90002A408D882A434FF6FF652B404FF6FF5599
:102EA0002B408D892B43CD892B4383800483CD8890
:102EB0008586028470BD70B5002400220023058C35
:102EC0004FF6EF7635400584028C8388048B48F6F4
:102ED000FF752C404FF6FF452C400D884FF6FF76CE
:102EE00006EA05252C434FF6DF752A400D8906EAD0
:102EF00005152A434D8806EA05152A43444DA84284
:102F000002D0494DA8421DD14FF67F752A404D8908
:102F10004FF6FF7606EA05152A434FF6BF752A409D
:102F20008D8806EA05152A434FF6FF352B404FF2F0
:102F3000FF752B408D8906EA85052B43CD8906EA6E
:102F400085052B4383800483CD880587028470BD6B
:102F500070B5002400220023058C4FF6FF66354033
:102F60000584028C8388848B4FF68F752C404FF636
:102F7000FC752C400D882C434FF6FF552A400D89D7
:102F80004FF6FF7606EA05252A434D8806EA052511
:102F90002A431F4DA84202D0234DA8421DD14FF213
:102FA000FF752A404D894FF6FF7606EA05252A432C
:102FB0004FF6FF352A408D8806EA05252A434EF64E
:102FC000FF752B404DF6FF752B408D8906EA0515E0
:102FD0002B43CD8906EA05152B4383808483CD8856
:102FE0008587028470BD70B5002200230024058C03
:102FF0004EF6FF7635400584038C8488828B48F634
:10300000FF752A404FF6FF452A400D8820E000005A
:10301000002C01400004004000080040000C00406B
:10302000001000400014004000340140004C0140FA
:10303000005001400054014000180040001C0040B6
:103040000020004000400140004401400048014091
:103050004FF6FF7606EA05252A434DF6FF752B400D
:103060000D8906EA05352B434D8806EA05352B43C5
:10307000FA4DA84202D0FA4DA84208D14BF6FF758E
:103080002C408D894FF6FF7606EA85152C43848007
:103090008283CD88A0F84050038470BD828B4FF2AC
:1030A000FF331A408283828B4FF6FF7303EA0123BA
:1030B0001A4382837047F0B50C4615460022002162
:1030C0000026078C4EF6FF7C07EA0C070784828BEC
:1030D000018C4FF6FF7707EA043640F6FF473A4087
:1030E0004FF6FF7707EA05273A434FF6FF7707EADF
:1030F00003373A43D94FB8420ED0D94FB8420BD01C
:10310000B0F1804F08D0D74FB84205D0D64FB84263
:1031100002D0D64FB84206D14DF6FF77394046F47B
:103120008057394305E047F6FF57394044F480574C
:10313000394382830184F0BD828B4FF6F3731A40CA
:103140008283828B0A4382837047F0B50C46154612
:10315000002200210026078C4FF6FF6C07EA0C07BF
:103160000784828B018C4FF6FF7707EA04264FF61F
:103170000C773A404FF6FF7707EA03172F433A439D
:10318000B64FB8420ED0B64FB8420BD0B0F1804F18
:1031900008D0B44FB84205D0B34FB84202D0B34FB5
:1031A000B84206D14FF6FF57394046F4807739438D
:1031B00005E04FF2FF57394044F48077394382836A
:1031C0000184F0BD028B4FF2FF331A400283028B61
:1031D0004FF6FF7303EA01231A4302837047F0B5E9
:1031E0000C461546002200210026078C4FF6EF7C86
:1031F00007EA0C070784028B018C4FF6FF7707EA7A
:10320000041640F6FF473A404FF6FF7707EA0337C8
:103210003A434FF6FF7707EA05273A438F4FB84204
:103220000ED08F4FB8420BD0B0F1804F08D08D4FE9
:10323000B84205D08C4FB84202D08C4FB84206D16C
:103240004FF6DF77394046F01007394305E04FF677
:103250005F77394044F01007394302830184F0BDA1
:10326000028B4FF6F3731A400283028B0A430283E8
:103270007047F0B50C46154600220021068C4FF62B
:10328000FE773E400684028B018C4FF60C7632406E
:103290007E1C06EA03162E433243704EB0420ED017
:1032A0006F4EB0420BD0B0F1804F08D06D4EB0429F
:1032B00005D06D4EB04202D06C4EB04206D14FF6F2
:1032C000FD76314044F00106314305E04FF6F576D6
:1032D000314044F00106314302830184F0BD70B5F2
:1032E00005460C465D4885420ED05D4885420BD0B0
:1032F000B5F1804F08D05B48854205D05A488542D9
:1033000002D05A48854200D100E000BF208850B961
:103310002389A28861882846FFF7ABFFE188284609
:10332000FFF79EFF25E0208804280AD12389A28880
:1033300061882846FFF753FFE1882846FFF742FFE0
:1033400017E0208808280AD12389A28861882846A6
:10335000FFF7FBFEE1882846FFF7EEFE09E0238930
:10336000A28861882846FFF7A6FEE1882846FFF775
:1033700095FE70BD2DE9F04105460C46002601275B
:10338000608808B9022600E00026A088012801D143
:10339000022700E001272088A0B92389A28861883C
:1033A0002846FFF766FFE1882846FFF759FF238983
:1033B0003A4631462846FFF712FFE1882846FFF7D4
:1033C00001FF13E02389A28861882846FFF707FFE1
:1033D000E1882846FFF7F6FE23893A46314628461B
:1033E000FFF747FFE1882846FFF73AFFBDE8F08185
:1033F0000A884B881A438B881A43CB881A430B8957
:103400001A434B891A438B891A43A0F8442070470A
:103410004FF6FF71818000210180C18041800172DF
:1034200070470021018041808180C18001814181FC
:103430008181C1817047002101804180012181800B
:103440000021C1800181704700210180418081807D
:10345000C18001814181818170470000002C0140C1
:10346000003401400004004000080040000C00400F
:1034700021B1028842F00102028004E002884FF686
:10348000FE731A400280704731B1B0F8442042F414
:103490000042A0F8442005E0B0F84420C2F30E0238
:1034A000A0F8442070471AB183890B43838102E05E
:1034B00083898B43838170478182704741EA02038D
:1034C000A0F8483070471AB183890B43838102E02A
:1034D00083898B438381704701894FF6F8721140CD
:1034E000018170470A46002101894FF68F73194008
:1034F00011430181704730B504460D4629462046E8
:10350000FFF7F0FF208940F00700208130BD2DE952
:10351000F04104460D4616461F46602D06D13B4637
:10352000012231462046FFF75AFE05E03B460122C4
:1035300031462046FFF79DFE29462046FFF7D2FF81
:10354000208940F007002081BDE8F08130B50C46AD
:1035500000210189C9B24FF6FF7505EA032515431D
:1035600025432943018130BD2DE9F04105460E4632
:1035700017469846002443463A4631462846FFF708
:10358000E5FF2C894FF6F870044044F007044FF62D
:103590008F70044044F070042C81BDE8F081F0B5D8
:1035A00004460D4616461F463B46324629462046EF
:1035B000FFF7CCFF208940F480402081F0BD0185D9
:1035C000828270470A46002101884FF68F731940A6
:1035D000114301807047F0B50C4615461E46002188
:1035E000002200230189028B038C4FF6F8773940C3
:1035F00021434FF6FC473A4040F201173A434FF659
:10360000DD773B404FF6FF7707EA06172F433B4332
:10361000018102830384F0BD0A460021018B4FF62D
:103620008F7319401143018370470A460021018BB3
:1036300048F6FF7319404FF6FF7303EA022319435C
:10364000018370470A460021818B4FF68F73194022
:103650001143818370470A460021818B48F6FF732E
:1036600019404FF6FF7303EA022319438183704721
:1036700021B1028842F08002028004E002884FF605
:103680007F731A400280704721B1828842F00402A1
:10369000828004E082884FF6FB731A408280704774
:1036A00021B1828842F00802828004E082884FF6CD
:1036B000F7731A408280704721B1828842F001027C
:1036C000828004E082884FF6FE731A408280704741
:1036D0000A460021018B4FF6F7731940114301830D
:1036E00070470A460021018B4FF2FF7319404FF6D5
:1036F000FF7303EA02231943018370470A4600213E
:10370000818B4FF6F77319401143818370470A4646
:103710000021818B4FF2FF7319404FF6FF7303EACC
:1037200002231943818370470A460021018B4FF61B
:10373000FB7319401143018370470A460021018B36
:103740004FF6FF3319404FF6FF7303EA0223194384
:10375000018370470A460021818B4FF6FB731940A5
:103760001143818370470A460021818B4FF6FF3356
:1037700019404FF6FF7303EA022319438183704710
:103780000A460021018B4FF67F73194011430183D4
:1037900070470A460021018BC1F30E014FF6FF73FB
:1037A00003EA02231943018370470A460021818BF3
:1037B0004FF67F7319401143818370470A460021F9
:1037C000818BC1F30E014FF6FF7303EA0223194305
:1037D000818370470A460021018C4FF6FD73194022
:1037E0001143018470470A460021018C4FF6F7739C
:1037F00019401143018470470A460021018C4FF69D
:10380000DF7319404FF6FF7303EA02131943018473
:1038100070470A460021018C4FF67F7319404FF61E
:10382000FF7303EA02131943018470470A4600211B
:10383000018C4FF6FF5319404FF6FF7303EA022342
:103840001943018470470A460021018C4FF2FF732F
:1038500019404FF6FF7303EA0223194301847047AE
:103860000A460021018C4DF6FF7319404FF6FF7395
:1038700003EA023319430184704730B50023012461
:103880008C40A3B2048C9C430484048C02FA01F59E
:10389000ADB22C43048430BD30B5002304248C40E9
:1038A000A3B2048C9C430484048C02FA01F5ADB2EB
:1038B0002C43048430BD70B5034600200024184614
:1038C000183001258D40ACB21D8CA5431D8409B173
:1038D000082909D100EB6100056825F07005056035
:1038E0000568154305600EE00D1FC5F34E0528441D
:1038F000056825F4E045056005684FF6FF7606EAA1
:1039000002263543056070BD21B1028842F00202F3
:10391000028004E002884FF6FD731A40028070476F
:1039200021B1028842F00402028004E002884FF6CE
:10393000FB731A400280704721B1828842F08002F6
:10394000828004E082884FF67F731A40828070473D
:1039500002884FF6F7731A40028002880A430280F9
:10396000704782884FF68F731A40828082880A439C
:103970008280704702894FF6F8731A4002810289EB
:103980000A430281704702894FF67F731A40028111
:1039900002890A430281704781847047818570479C
:1039A000818670470187704781877047A0F8401073
:1039B000704702884FF6FF431A40028002880A438C
:1039C000028070470146888E70470146088F704715
:1039D0000146888F70470146B1F8400070470146A4
:1039E000888C70470146088D704702460020138A74
:1039F0000B400BB1012000E000207047CA43028257
:103A0000704730B50246002000230024158A05EADD
:103A10000103958905EA010413B10CB1012000E00E
:103A2000002030BDCA4302827047000010B5044632
:103A3000FA48844208D101214015FEF79BFE00217F
:103A40006015FEF797FE17E0F548844208D1012182
:103A50000015FEF78FFE00212015FEF78BFE0BE010
:103A6000F048844208D10121C803FEF783FE0021FB
:103A70004FF40040FEF77EFE10BD30B50246002038
:103A800000235068E84C20400D790C6844EA052476
:103A9000204350609068E54C2040D1E902542C430B
:103AA0004D7944EA450420439060D06A20F47000C8
:103AB0000C7C641EE4B2234340EA0350D06230BD64
:103AC00000210160017141718160C16001210174B7
:103AD000704721B1826842F00102826003E082688F
:103AE00022F001028260704721B1826842F4807244
:103AF000826003E0826822F480728260704710B5B1
:103B00000023CBB21AB144681C43446002E044680D
:103B10009C43446010BD816841F00801816070479A
:103B2000014600208A6802F008020AB1012000E084
:103B300000207047816841F00401816070470146B0
:103B400000208A6802F004020AB1012000E000208F
:103B5000704721B1826842F4A002826003E082686B
:103B600022F4A00282607047014600208A6802F4B5
:103B700080020AB1012000E00020704710B50A461B
:103B800000210023416821F46041531E41EA433182
:103B9000416010BD21B1426842F40062426003E01E
:103BA000426822F4006242607047F0B504460D4658
:103BB00000200021092D11DDE068A5F10A0606EBC1
:103BC0004607072606FA07F18843A5F10A0606EB21
:103BD000460603FA06F10843E0600CE0206905EBB5
:103BE0004507072606FA07F1884305EB450603FA61
:103BF00006F108432061072A0FDA606B561E06EBB8
:103C000086071F2606FA07F18843561E06EB86062E
:103C100005FA06F10843606322E00D2A0FDA206BF3
:103C2000D61F06EB86071F2606FA07F18843D61F24
:103C300006EB860605FA06F10843206310E0E06A09
:103C4000A2F10D0606EB86071F2606FA07F1884348
:103C5000A2F10D0606EB860605FA06F10843E062BE
:103C6000F0BD21B1826842F48012826003E0826874
:103C700022F48012826070470146C86C80B270479F
:103C800066484C300068704721B1426842F4806257
:103C9000426003E0426822F480624260704721B1D2
:103CA000426842F48052426003E0426822F480524B
:103CB000426070470A460021816821F4E0411143C7
:103CC0008160704721B1826842F40042826003E063
:103CD000826822F400428260704721B1826842F417
:103CE0000212826003E0826822F40212826070474E
:103CF000014600208A6802F400120AB1012000E0A7
:103D000000207047F0B5044615460020002200262A
:103D1000092911DDE068A1F10A0707EB470C072725
:103D200007FA0CF29043A1F10A0707EB470703FAE1
:103D300007F21043E0600CE0206901EB410C07271B
:103D400007FA0CF2904301EB410703FA07F2104324
:103D50002061A06BC0F30156EF1C06F1010CA7EB2C
:103D60000C0707EB870C1F2707FA0CF29043EF1C98
:103D700006F1010CA7EB0C0707EB870701FA07F226
:103D80001043A063F0BD10B50A4600210023816BEB
:103D900021F44011531E41EA0351816310BD08B55F
:103DA000002300930090009B0B440093009B1A603B
:103DB00008BD08B5024600200090009201F12800DD
:103DC000009B184400900098006880B208BD0A4625
:103DD00000214168164B1940114341607047416210
:103DE000826270470A460021416821F01F01114399
:103DF0004160704740B109490831096841F4000148
:103E0000064A0832116007E004490831096821F4C4
:103E10000001024A0832116070470000002401408E
:103E200000280140003C0140FFFEF0FFFDF7F1FFDC
:103E3000FFFD3FFF0246002013680B400BB101203D
:103E400000E000207047CA430260704770B5024628
:103E50000020002300240B125568CEB205EA0604A8
:103E600015681D4015B10CB1012000E0002070BDA7
:103E700000220A12D34303607047000001684FF626
:103E8000FE72114001600021016041608160C160EB
:103E90008D49884208D18C490839496841F00F01A1
:103EA000894A083A51608AE087491431884208D12A
:103EB00085490839496841F0F001834A083A516060
:103EC0007DE081492831884208D17F490839496815
:103ED00041F470617C4A083A516070E07A493C31A3
:103EE000884208D178490839496841F47041764AD6
:103EF000083A516063E074495031884208D17249F0
:103F00000839496841F470216F4A083A516056E017
:103F10006D496431884208D16B490839496841F4D8
:103F20007001694A083A516049E06749783188422E
:103F300008D165490839496841F07061624A083A18
:103F400051603CE06149884206D1011F096841F097
:103F50000F01021F116032E05C491431884208D120
:103F60005A49091F096841F0F001584A121F1160AF
:103F700025E056492831884208D15449091F09686B
:103F800041F47061514A121F116018E04F493C31F1
:103F9000884208D14D49091F096841F470414B4AD4
:103FA000121F11600BE049495031884207D147493F
:103FB000091F096841F47021444A121F11607047BB
:103FC00010B50022026847F6F0739A430C6A8B68BA
:103FD00023430C6923434C6923438C692343CC69F5
:103FE00023434C6A23438C6A23431A430260CB6801
:103FF00043600B6883604B68C36010BD00210160A3
:1040000041608160C160016141618161C1610162A2
:1040100041628162704721B1026842F00102026090
:1040200004E002684FF6FE731A40026070471AB14E
:1040300003680B43036002E003688B43036070472F
:10404000416070470146486880B2704701460020D1
:10405000002201F080531BB11C4B083B1A6802E0A0
:10406000194B083B1A6802EA01030BB1012000E07A
:104070000020704700F0805119B11449091F0860F1
:1040800002E01149083948607047014600200022CB
:1040900001F080531BB10D4B083B1A6802E00A4B3C
:1040A000083B1A6802EA01030BB1012000E000207E
:1040B000704700F0805119B10449091F086002E0FF
:1040C000014908394860704708000240080402406E
:1040D000704700000FB41CB5074B06AA7B44694625
:1040E0000090059800F0FFFB0020694600F00EFCF0
:1040F0001CBC5DF814FB00002D0800002DE9F04108
:104100000646002410687529314616A510D0AFF375
:104110000080002802DA404213A507E031688A07D0
:1041200001D512A502E0490704D511A5012401E03B
:10413000AFF3008000210A2206F1240709E0B0FB5A
:10414000F2FCB0FBF2F302FB1C003030785418464E
:10415000491C0028F3D123462A463046BDE8F041E9
:1041600000F056B9000000002D0000002B000000F8
:10417000200000002DE9F0474FF0000A8946044670
:10418000C0F820A02046E1688847002876D025287E
:1041900006D0D4E901219047206A401C2062F1E753
:1041A000E168204600258847C4F81CA00646002781
:1041B000C4F818A02A2E09D0304601F00BFC38B301
:1041C00004EB8708303EC8F8186019E059F8041B62
:1041D000204604EB87029161E1688847012F06467B
:1041E00018D1E069002820DA25F020051DE0D8F874
:1041F000180000EB800006EB40003038C8F81800CB
:104200002046E1688847064601F0E4FB0028EED12D
:10421000012F0AD02E2E08D12046E16888477F1C46
:104220000646022F45F02005C4DBA069002803DA0A
:10423000404245F00105A061E80701D025F01005D6
:10424000B6B1A6F14100192802D8203645F4006520
:104250004A463146204625604D46FBF7C3FF58B11C
:10426000012806D0ED1D25F0070000F1080989E7B7
:1042700004E005F1040985E730468AE7206ABDE8D5
:10428000F08730B505460B462A4613F8014B12F865
:10429000010B08B1A042F8D01CB1002802D06D1C5F
:1042A000F1E7284630BD10B5431C02E010F8011BB1
:1042B00071B18107FAD14FF0013202C88C1A8C43D8
:1042C00014EAC211F9D0C01A0A0603D0C01E10BDEC
:1042D000C01A10BD0A0401D0801E10BD0902FCD016
:1042E000401E10BD421E12F8013F002BFBD111F8F9
:1042F000013B002B02F8013BF9D1704710B5203A81
:10430000C0F00B80B1E81850203AA0E81850B1E88E
:104310001850A0E81850BFF4F5AF5FEA027C24BF44
:10432000B1E81850A0E8185044BF18C918C0BDE83B
:1043300010405FEA827C24BF51F8043B40F8043B04
:1043400008BF7047D20728BF31F8023B48BF11F8B9
:10435000012B28BF20F8023B48BF00F8012B704713
:104360004FF000020429C0F0128010F0030C00F09E
:104370001B80CCF1040CBCF1020F18BF00F8012B1C
:10438000A8BF20F8022BA1EB0C0100F00DB85FEAEA
:10439000C17C24BF00F8012B00F8012B48BF00F8B6
:1043A000012B70474FF0000200B513469446964625
:1043B000203922BFA0E80C50A0E80C50B1F1200138
:1043C000BFF4F7AF090728BFA0E80C5048BF0CC0E6
:1043D0005DF804EB890028BF40F8042B08BF704744
:1043E00048BF20F8022B11F0804F18BF00F8012BB6
:1043F0007047704770477047704710B500F090FAEB
:10440000006810BD10B5044600F08AFA046010BDC3
:104410002DE9F0470D4699469246044600F12408DE
:104420000168880604D5E06921F01001216000E0F0
:104430000120A84201DD471B00E00027A1697A198D
:1044400002EB0900081AA0612078C00602D42046B9
:10445000AFF30080002608E0D4E901211AF8060035
:104460009047206A401C761C20624E45F4DB207881
:10447000C0060AD52046AFF3008006E0D4E901214A
:1044800030209047206A401C2062381EA7F10107A7
:10449000F4DC07E0D4E9012118F805009047206A10
:1044A000401C2062281EA5F10105F3DC2046AFF375
:1044B00000802078000602D50220BDE8F0870120A8
:1044C000FBE770472DE9FF4F0C461E464FF0FF37C4
:1044D0008BB0D2E90001DDF860800A908A46C1F312
:1044E0000A5505B93D46002108464FF00000BAF1D3
:1044F000000F00F4400005DA00EB80004FF44001AB
:1045000001EA50004FEA9059B9F1010F00DDB946B8
:104510000A9850EA4A000ED044F61050A5F2FF3532
:1045200045432F14B8F1000F1ED07542291E1EDD21
:10453000C9F100021CE0B8F1010F4FF0000001D0FA
:10454000302103E0F24305E02154401CB042FBDB84
:1045500030460022002121540B99C1F80880C1E99E
:1045600000200FB0BDE8F08FBD1B6D1CDEE74A4692
:1045700000DA694206A800F05DFA06AB93E807008E
:1045800003AB83E8070050460A9900F033FB8DE83F
:104590000700A0F500501F3800900398002D09DD9A
:1045A00042F21F014A46084403A90390684600F0FE
:1045B00092FD08E0A0F500504A461F3803A9039079
:1045C000684600F09CFD8DE807000004000C03D055
:1045D0004FF0FF30410800E01046B8F1000F03D063
:1045E0000022009215461EE0751E05D400F09CF9CD
:1045F000303262556D1EF9D5B3460122084302D010
:1046000000227F1C04E02078302801D100227F1E88
:10461000002A099786D01DE0112D07DA00F084F9F1
:10462000303262556D1C50EA0102F5D1084302D0C8
:104630000098C8B10EE00021681E05E0235C625CB2
:1046400063542254401E491C8142F7DBAB46A81B31
:10465000401E0990002004F80B000B98099AC0F83E
:104660000880C0E9002B7CE711264FF0000859E7CD
:104670002DE9F04F88460446D21D22F0070191B083
:10468000D1E90001CDE90A0100F06FFE02460B9866
:10469000C00F01D02D2007E02068810701D52B2015
:1046A00002E0202101EAC000032A099001D0072A74
:1046B00005DB03464146204600F07CF90BE12078FB
:1046C000800601D5E06900E00620B8F1650F81465B
:1046D00006D0B8F1660F18D0B8F1670F70D131E08D
:1046E0000020B9F1110F009001DB112301E009F165
:1046F00001030AAA01A90CA8FFF7E4FEDDE90C708A
:10470000002609F10105834647E001204B46009051
:104710004FF000470AAA01A90CA8FFF7D3FEDDE974
:104720000DB00C995D46002610B909F101000D1875
:10473000B9EB050003D4C0F1FF3609F10105A5EB83
:1047400009002BE0B9F1010F01DA4FF00109002057
:10475000B9F1110F0090484601DD112300E0034636
:104760000AAA01A90CA8FFF7ADFEDDE90C704D46C1
:1047700000268346207800070AD4AB4500DA5D4660
:1047800001A8012D04DD411911F8011C302907D0C1
:104790004F4502DA17F1040F04DA012082460FE0D8
:1047A0006D1EEEE7002F02DCED1B3E4403E0781C9B
:1047B000A84200DD7D1CB81B00F1010A4FF0004744
:1047C0002078000703D4AA4501DB4FF0FF3A00210F
:1047D000B7F1004F0DF143088DF8431024D00220AB
:1047E0002B23002F01DA7F422D230A21021EA0F184
:1047F000010000DC5FB197FBF1FC97FBF1F201FBDC
:104800001C7C17460CF1300C08F801CDEEE7A8F13E
:10481000010003702188090501D5452100E06521CB
:10482000A0F1010800F8011C09980FA9A1EB0807E5
:10483000FF1D00B10120411901EBEA70A169384464
:10484000081A401EA0612078C00602D42046AFF3AB
:104850000080099828B1D4E901219047206A401CC2
:1048600020622078C00622D52046AFF300801EE0EB
:10487000002E04DBB34502DD01A8805D00E030209E
:10488000D4E901219047206A401C2062761CAAF1DD
:1048900001005FEA000A0AD100F03EF8C068016832
:1048A000405CD4E901219047206A401C2062281E08
:1048B000A5F10105DCDC07E0D4E9012118F8010BC2
:1048C0009047206A401C2062381EA7F10107F3DCE4
:1048D0002046AFF30080032011B043E601694A1C73
:1048E00002610878704700B58FB0CDE90131002131
:1048F000059105497944CDE9031011466846FFF753
:1049000039FC0FB000BD0000E5FFFFFF0A6802F8A8
:10491000010B0A607047000000487047E81C002047
:1049200000487047C81C002030B5B0F10A024FEAB9
:10493000900E71F100034EEA817EB0EB0E0061EB48
:1049400091014FEA101E4EEA017E10EB0E0041EB82
:1049500011114FEA102E4EEA016E10EB0E0041EBE2
:1049600011214FEA104E4EEA014E10EB0E0041EBC2
:104970001141401841F100014FEAD00040EA417076
:104980004FEAD10110EB80054FEA810444EA9074AC
:1049900044EB01046D1944EB0404521BA3414FF096
:1049A000000348BF0A3200D530BD401C41F1000170
:1049B00030BD00002DE9F0411F4604460326016882
:1049C000072A01F4006004DB08B116A505E016A56E
:1049D00003E008B115A500E015A521F01000206046
:1049E000A069C01EA0610FB1401EA0612046AFF3B8
:1049F00000804FB1D4E9012138469047206A401C1D
:104A00002062C01C206206E0206AFAE7D4E9012196
:104A100015F8010B9047761EF8D22046AFF30080C0
:104A2000BDE8F0814E414E006E616E00494E460079
:104A3000696E66002DE9F047814616468AB0334814
:104A400078440DC88DE80D0030487844801C03ACD4
:104A50000DC884E80D0041F69B300844372190FBD7
:104A6000F1F290FBF1F5A5F1800501FB12041B3C6E
:104A700002D56442012000E00020DFF890A08046CB
:104A80000027FA44AAF1BE0A0DE0E00709D0324639
:104A9000684607EB47010AEB810100F030FB8DE827
:104AA000070064107F1C002CEFD1184F7F44AC3FEF
:104AB00018E0E80714D007EB04100DF1180A90E88D
:104AC0000E008AE80E00C068F04201D198190890E3
:104AD000324606A903A800F012FB03AB83E80700E7
:104AE0006D10641C002DE4D132466946B8F1000F08
:104AF00003A802D000F0EFFA01E000F000FBC9E9E2
:104B00000001C9F808200AB0BDE8F087882E00002F
:104B100000487047C81C00207546FFF7F9FFAE46F5
:104B200005006946534620F00700854618B020B5B9
:104B3000FDF76AFABDE820404FF000064FF000078D
:104B40004FF000084FF0000B21F00701AC46ACE835
:104B5000C009ACE8C009ACE8C009ACE8C0098D46A2
:104B6000704710B50446AFF300802046BDE8104002
:104B7000FBF755BB4FF0013C50F8042B51F8043BB8
:104B80009A4221D1A2EB0C03934313EACC1317D121
:104B900050F8042B51F8043B9A4215D1A2EB0C03B8
:104BA000934313EACC130BD150F8042B51F8043B78
:104BB0009A4209D1A2EB0C03934313EACC13DBD046
:104BC0004FF00000704700BFD01A01BAB1FA81F16E
:104BD00001F0180122FA01F0CB40C1F12001DBB253
:104BE000C0B2C01A2CFA01F3D11A914311EAC311D1
:104BF000E6D170475FEA400C08BF91F0000F4FEA22
:104C00008C234FEAC12243EA51514FEA1C5018BF8E
:104C100000F5F0404FEA300018BF41F000415FEA74
:104C20006C5C00F02980BCF1FF3F08BF40F0804081
:104C30007047130C06BF12044FF0100C4FF0000C1D
:104C4000130E04BF12020CF1080C130F04BF120163
:104C50000CF1040C930F04BF92000CF1020CD30F63
:104C600004BF52000CF1010C11464FF00002A0F1FC
:104C70001F00A0EB0C00704711F0004F08BF7047F9
:104C800031F000413FF4D5AF0B0C06BF09044FF0E3
:104C9000100C4FF0000C0B0E04BF09020CF1080CB5
:104CA0000B0F04BF09010CF1040C8B0F04BF89002A
:104CB0000CF1020CCB0F04BF49000CF1010CCCF13C
:104CC0002003A0EB0C0022FA03F302FA0CF241EAF3
:104CD000030100F10100704720F07F4C80EA0300DF
:104CE00023F07F47ACEB070303F57C5300F0004053
:104CF00003F1FF032DE980494FEA154B09B44FEA50
:104D0000144325EA0B4E24EA03480FF2042606EB6F
:104D1000132749083E785FEA320203FB0667C7F5AE
:104D2000000707FB06F64FEA54374FEAD64606F16E
:104D3000020607FB066CCCF1005C4FEA1C472CEA2C
:104D4000074C07FB06F40CFB06F504EB15464FEA8F
:104D5000961634BF00204FF000404FEAD13706FBD3
:104D600007FC4FEA1C4C0CFB0BF7D21B03FB0CF7A8
:104D700061EB07010CFB0EF7B0EB074072EB17423B
:104D80000CFB08F734BFA2EB0742B2EB074261EB22
:104D900017414FEA0C444FEA910706FB07FC4FEA24
:104DA0001C4C0CFB0BF7B0EBC74072EB573203FB0C
:104DB0000CF734BFA2EBC742B2EBC74261EB5731ED
:104DC0000CFB0EF7B0EBC70072EB57720CFB08F749
:104DD00034BFA2EBC702B2EBC70261EB5771039F6E
:104DE0004FEA816141EA921104EBCC044FEAD137DA
:104DF0004FEA826206FB07FC42EA90124FEA8060AB
:104E00004FEA1C4C0CFB0BF7D21B03FB0CF761EBBE
:104E100007010CFB0EF7B0EB074072EB17420CFBDF
:104E200008F734BFA2EB0742B2EB074261EB174130
:104E30004FEA8C554FEA910704EB9C2406FB07FCD4
:104E40004FEA1C4C0CFB0BF7B0EBC74072EB573230
:104E500003FB0CF734BFA2EBC742B2EBC74261EBD6
:104E600057310CFB0EF7B0EBC70072EB57720CFB1F
:104E700008F734BFA2EBC702B2EBC70261EB577170
:104E800015EB4C254FEA816141EA92114FEA8262AB
:104E90004FEAD13742EA901206FB07FC44F10004C6
:104EA0004FEA80604FEA1C4C0CFB0BF7D21B03FB54
:104EB0000CF761EB07010CFB0EF7B0EB074072EB50
:104EC00017420CFB08F734BFA2EB0742B2EB0742D4
:104ED00061EB174115EB1C154FEA813141EA924114
:104EE0004FEA823242EA90424FEA80304FEA0C7633
:104EF00044F1000448EA03434EEA0B484FF0000E29
:104F0000B2EB080C71EB030724BF624639464EEB47
:104F10000E0E4FF0000B0018524149414BEB0B0BAA
:104F2000B2EB080C71EB03077BF1000B24BF624668
:104F300039464EEB0E0E4FF0000B0018524149411E
:104F40004BEB0B0BB2EB080C71EB03077BF1000B87
:104F500024BF624639464EEB0E0E51EA020718BFD7
:104F600046F0010616EB0E7655F1000254F10001F1
:104F700003D5BDE88901BDE80088BDE88901BDE829
:104F80000048B619524141EB0101A3F101037047FA
:104F900080807F7E7D7C7B7A797877767675747376
:104FA000727171706F6E6E6D6C6C6B6A6A69686835
:104FB000676666656464636362616160605F5F5ECB
:104FC0005E5D5D5C5C5B5B5A5A5959585857575641
:104FD00056555555545453535252525151505050A6
:104FE0004F4F4F4E4E4D4D4D4C4C4C4B4B4B4A4AF8
:104FF0004A4949494848484747474746464645453C
:105000004544444444434343434242424241414174
:10501000002B26D4770021D01CB54FEA370703B404
:105020004FF010004FF010014FF000000FBCBDE832
:1050300010400BF1010BBBF1010F08BF5FEA17072E
:1050400022BF12F1010211F101014FF0004143F1C1
:10505000000300F0004043EA00007047F9D357080E
:10506000DAE746EA064613F1400F4FEA16461FDD1F
:1050700013F1200FDFBF16430A46002120335B42A5
:10508000C8D0C3F1200746EA064602FA07F74FEAFE
:10509000164646EA0706C3F1200722FA03F201FA90
:1050A00007F721FA03F14FF0000342EA0702B1E7E4
:1050B00046EA020646EA06464FEA164646EA010670
:1050C000BCBF46EA0646360C4FF000034FF0000224
:1050D0004FF000019EE72DE9C048934630B491E8B7
:1050E000380007C831EA400C48BF34EA430C03D506
:1050F000FFF7F2FDFFF78CFFF0BCBDE800882DE95B
:10510000C048934630B491E8380007C810F0804F8B
:1051100008BF13F0804F03D100F005F8FFF778FFC8
:10512000F0BCBDE8008820F07F4780EA030023F050
:105130007F4C07EB0C03A3F57C5300F00040A3F178
:10514000FE0392F0000F00F0B38095F0000F00F026
:1051500077802DE901494FEA11404FEA144621EAD0
:10516000004800FB06FC24EA064708FB06F607FB9E
:1051700008F800FB07F718EB06484CEB164C4FEA13
:10518000124B18EB07484FEA15464CEB174022EA42
:105190000B4E0BFB06FC25EA06470EFB06F607FB4B
:1051A0000EFE0BFB07F71EEB064E4CEB164C4FF0BA
:1051B00000061EEB074E4CEB174B18EB0B0840F1AB
:1051C000000018EB0E0B58EB000840F100008F1A9E
:1051D0004FF000013CBFC943661B14BFB5EB040C84
:1051E00000213CBFC943F61B4FEA17444EEA8E0E1E
:1051F00027EA04454FEA1C4704FB07622CEA074CE8
:1052000005FB07F70CFB05F604FB0CFC16EB074649
:1052100042EB174216EB0C4642EB1C421BEB060618
:1052200058EB0202414146EA9E0601D5BDE80189DC
:10523000B619524141EB0101A3F10103BDE8018917
:105240004FEA14454FEA114724EA054621EA074C84
:1052500005FB07F406FB07F70CFB06F105FB0CFC4E
:1052600011EB074144EB17444FEA124711EB0C4195
:1052700044EB1C4422EA074C05FB07F206FB07F748
:105280000CFB06F605FB0CFC16EB074642EB17423F
:1052900016EB0C4642EB1C456A1854F1000148BF5E
:1052A0007047B619524141EB0101A3F10103704768
:1052B00095F0000F37D04FEA11424FEA144721EA28
:1052C000024624EA074C02FB07F106FB07F70CFB3A
:1052D00006F402FB0CFC14EB074441EB17414FEAC8
:1052E000154714EB0C4441EB1C4125EA074C02FB2B
:1052F00007F506FB07F70CFB06F602FB0CFC16EBAA
:10530000074645EB174516EB0C4645EB1C421219B8
:1053100051F1000148BF7047B619524141EB0101FC
:10532000A3F1010370474FEA14454FEA114724EAFD
:10533000054621EA074C05FB07F106FB07F70CFBC6
:1053400006F24FF0000605FB0CFC12EB074241EBA6
:10535000174112EB0C4251EB1C4148BF70479218A9
:1053600041EB0101A3F101037047490050EAC1205C
:1053700018BF04204A0D18BF40F0010040F2FF7230
:10538000B2EB515F08BF40F00200012808BF0520C2
:10539000704700002DE9F74F144694B00021C4E98E
:1053A00002111599079121F00045C9498D4206DC8B
:1053B0001599C4E9000117B00020BDE8F08FC54978
:1053C000DFF814A3A9423CDD0799C44E0029C44F5D
:1053D000C44A1599534619DD01F090F8554506D099
:1053E000C14AC24B01F08AF8C4E900010AE04FF05B
:1053F000D352BE4B01F082F832463B4601F07EF8B4
:10540000C4E9000117B00120BDE8F08F00F0F6FB01
:10541000554506D0B44AB54B00F0F0FBC4E9000195
:105420000AE04FF0D352B14B00F0E8FB32463B4666
:1054300000F0E4FBC4E9000117B04FF0FF30BDE815
:10544000F08FAB49A942159978DB21F000418346E2
:105450008846A84AA84B00F061FE0022A74B00F046
:10546000CDFB00F0D3FD099000F02DFE06460F465F
:105470009C4A534600F052FE43465A4600F04CFF09
:1054800080468A46984A994B3046394600F046FE97
:105490002A0D01250B924246534600F03DFF032D95
:1054A000C4E9000139D00B98C1F30A51401A05EB49
:1054B00045111139814230DA9148C346784400EBF6
:1054C0000510CDF80CA00C90D0E9002330463946E9
:1054D00000F024FE02460B460491069058460399BC
:1054E00001F00CF880468A4602460B46584603995E
:1054F00001F004F8049B069A01F000F883460C982A
:1055000003913946D0E90223304600F007FE5A469F
:10551000039B00F0F3FF6D1CBDE707980028A2BFB6
:10552000099817B0BDE8F08F616881F000416160B3
:10553000099817B04042BDE8F08FFFE78446159800
:10554000C1F31301C0F30A50A0F2F5304FEA60181E
:1055500000F01F06C6F1200013900020069007906F
:1055600041F4801E05206D4676B1664A08EB0001C5
:105570007A4452F8213002EB8101B3404A68139912
:1055800022FA01F1194305E05F4908EB0002794472
:1055900051F82210A1FB0E27A1FB0C131A449A42CA
:1055A00034BF0123002303EB070A05EB8003D3E993
:1055B00001B70F448F4234BF0121002193448B4433
:1055C00011B1934502D903E0934501D2012100E0D6
:1055D0000021C3E901B7514445F82010011EA0F194
:1055E0000100C1DC0298059F00F10050800F12906D
:1055F0000298DDE90356800000F065FD83462846E9
:105600000D9100F077FD6FF01D0201F03EFCCDE939
:105610000E01304600F06EFD6FF03D0201F035FCEA
:1056200080468A46384600F065FD6FF05D0201F065
:105630002CFC074642465346119100F0DFFADDE9A3
:105640000E2300F0DBFA5A460D9B00F0D7FA002536
:105650000E465A4628460D9B00F050FFDDE90E230A
:1056600000F04CFF4246534600F048FF3A46119B7B
:1056700000F052FEDFF898A0244A534600F04EFD99
:1056800007468846234A244B3146284600F046FD0B
:105690003A46434600F0B2FA074688464FF0A84221
:1056A00053463146284600F039FD3A46434600F05D
:1056B000A5FA159A12F0004F04D0129A81F0004119
:1056C00052421292C4E90001129817B0BDE8F08F5F
:1056D000FB21E93F7CD90240FB21F93F7370032E87
:1056E0008A19A33B000040543163621A61B4D03D73
:1056F000FB21394183C8C96D305FE43F0000E03FC2
:10570000A02200001C220000FE210000182D44549D
:10571000FB21F93D3326A611460B113C2DE9FF4D27
:1057200021F0004807460C46B8F1795F08DA00F02E
:105730006DFC002801BF0020324904B0BDE8F08DA7
:105740003A4623461046194600F0E8FC0546024654
:105750002D480E460B460621784400F05DF82A4697
:10576000334600F0DBFCDDE9022382468B463846F7
:10577000214600F0D3FC04460F4652465B462846BD
:10578000314600F0CBFC22463B4600F0B7FE074610
:105790008A464FF0FF322846314601F076FB1B4A1D
:1057A00090450ADA3A46534600F0A8FE04B00022BB
:1057B000BDE8F04D134B00F0AFBD154A4245A8BF00
:1057C000A8F500154FF00004B8BF124D22462B4635
:1057D00000F094FE0646884622462B4600200949E2
:1057E00000F08CFE04460D463A465346304641468C
:1057F00000F084FE04B022462B46BDE8F04D00F0D8
:105800008BBD00000000F03FD41F00003333D33FB6
:105810000000E93F0000D23F2DE9F0414F1E00EBB0
:10582000C7010446D1E9000115461E4637F00602BD
:105830000DD02A46334600F071FC7F1E04EBC703EF
:10584000D3E9002300F0DAF937F00602F1D1022F94
:1058500025D0042F13D0062F18BFBDE8F0812A46AB
:10586000334600F05BFCD4E90A2300F0C7F92A466E
:10587000334600F053FCD4E9082300F0BFF92A4670
:10588000334600F04BFCD4E9062300F0B7F92A4672
:10589000334600F043FCD4E9042300F0AFF92A4674
:1058A000334600F03BFCD4E9022300F0A7F92A4676
:1058B000334600F033FCD4E90023BDE8F04100F0AA
:1058C0009DB900002DE9FF4D054621F0004084B050
:1058D0000C46B0F1795F0BDA2846FFF746FD042845
:1058E00008BF00F06FF8284608B02146BDE8F08DEB
:1058F0002A460B46104600F011FC06460F462A4683
:10590000234600F00BFC804626488A4632463B463A
:1059100005217844FFF780FF83461098029160B319
:10592000214A224B4046514600F0F8FBCDE90001E8
:105930005A4640465146029B00F0F0FB824688469C
:10594000DDE906014FF0FF3201F09FFA524643466F
:1059500000F0D4FD32463B4600F0E0FBDDE90623D3
:1059600000F0CCFDDDE9002300F0C8FD08B02A46B8
:105970002346BDE8F04D00F0CFBC0B465A463046FA
:10598000394600F0CBFB084A084B00F037F9424695
:10599000534600F0C3FB08B02A462346BDE8F04D4D
:1059A00000F02CB9121F0000495555555555C5BF7B
:1059B000012201F06ABA002213461046114600F097
:1059C000CDB90000024A0020110701F05EBA0000C4
:1059D00001FDFFFF30380A2801D201207047002066
:1059E0007047000000B5244B21F0004287B09A4276
:1059F000DCBF0022134629DD204B9A4208D140B972
:105A00004FF00100FEF7FEFCFFF7D5FF07B000BD29
:105A100003DBFFF7CDFF07B000BD02AAFFF7BAFC1A
:105A200010F0030104BF0DF1080C9CE80F000DD02D
:105A3000012001290ED0022914D00DF1080C00908C
:105A40009CE80F00FFF73EFF07B000BDFFF766FEC2
:105A500007B000BD0DF1080C00909CE80F00FFF7A7
:105A600031FF05E00DF1080C9CE80F00FFF756FE32
:105A700007B081F0004100BDFB21E93F0000F07F4D
:105A800000B5254B21F0004287B09A4203DC00228A
:105A9000134600922BE0214B9A4208D140B94FF0B7
:105AA0000100FEF7AFFCFFF786FF07B000BD03DB88
:105AB000FFF77EFF07B000BD02AAFFF76BFC10F0F6
:105AC00003014FF001000DD0012914D002291AD092
:105AD0000DF1080C9CE80F00FFF720FE07B081F0E5
